{
  "contractName": "Document",
  "abi": [
    {
      "constant": false,
      "inputs": [
        {
          "name": "registrationId",
          "type": "uint256"
        },
        {
          "name": "name",
          "type": "string"
        }
      ],
      "name": "addStudent",
      "outputs": [],
      "payable": false,
      "stateMutability": "nonpayable",
      "type": "function"
    },
    {
      "constant": false,
      "inputs": [
        {
          "name": "name",
          "type": "string"
        },
        {
          "name": "registrationId",
          "type": "uint256"
        }
      ],
      "name": "addUniversity",
      "outputs": [],
      "payable": false,
      "stateMutability": "nonpayable",
      "type": "function"
    },
    {
      "constant": true,
      "inputs": [
        {
          "name": "studentId",
          "type": "uint256"
        }
      ],
      "name": "getStudent",
      "outputs": [
        {
          "name": "",
          "type": "string"
        },
        {
          "name": "",
          "type": "uint256"
        }
      ],
      "payable": false,
      "stateMutability": "view",
      "type": "function"
    },
    {
      "constant": true,
      "inputs": [],
      "name": "owner",
      "outputs": [
        {
          "name": "",
          "type": "address"
        }
      ],
      "payable": false,
      "stateMutability": "view",
      "type": "function"
    },
    {
      "constant": true,
      "inputs": [
        {
          "name": "id",
          "type": "uint256"
        }
      ],
      "name": "getUniversity",
      "outputs": [
        {
          "name": "",
          "type": "string"
        },
        {
          "name": "",
          "type": "uint256"
        }
      ],
      "payable": false,
      "stateMutability": "view",
      "type": "function"
    },
    {
      "anonymous": false,
      "inputs": [
        {
          "indexed": false,
          "name": "registrationId",
          "type": "uint256"
        },
        {
          "indexed": false,
          "name": "name",
          "type": "string"
        }
      ],
      "name": "AddNewStudent",
      "type": "event"
    },
    {
      "anonymous": false,
      "inputs": [
        {
          "indexed": false,
          "name": "name",
          "type": "string"
        },
        {
          "indexed": false,
          "name": "registrationId",
          "type": "uint256"
        },
        {
          "indexed": false,
          "name": "_universityId",
          "type": "uint256"
        }
      ],
      "name": "AddNewUniversity",
      "type": "event"
    },
    {
      "anonymous": false,
      "inputs": [
        {
          "indexed": true,
          "name": "previousOwner",
          "type": "address"
        },
        {
          "indexed": true,
          "name": "newOwner",
          "type": "address"
        }
      ],
      "name": "OwnershipTransferred",
      "type": "event"
    },
    {
      "constant": false,
      "inputs": [
        {
          "name": "documentType",
          "type": "string"
        },
        {
          "name": "hash",
          "type": "string"
        },
        {
          "name": "university",
          "type": "uint256"
        },
        {
          "name": "student",
          "type": "uint256"
        }
      ],
      "name": "addDocument",
      "outputs": [],
      "payable": false,
      "stateMutability": "nonpayable",
      "type": "function"
    },
    {
      "constant": true,
      "inputs": [
        {
          "name": "documentId",
          "type": "uint256"
        }
      ],
      "name": "getDocument",
      "outputs": [
        {
          "name": "",
          "type": "string"
        },
        {
          "name": "",
          "type": "string"
        },
        {
          "name": "",
          "type": "string"
        },
        {
          "name": "",
          "type": "string"
        }
      ],
      "payable": false,
      "stateMutability": "view",
      "type": "function"
    }
  ],
  "bytecode": "0x6080604052600160025560016004556001600655336000806101000a81548173ffffffffffffffffffffffffffffffffffffffff021916908373ffffffffffffffffffffffffffffffffffffffff160217905550611016806100626000396000f300608060405260043610610083576000357c0100000000000000000000000000000000000000000000000000000000900463ffffffff1680633f9b250a1461008857806342ecc52a1461027257806348b4aa84146102e55780634c64b1ee14610358578063642f91631461041b5780638da5cb5b146104c8578063c99086d01461051f575b600080fd5b34801561009457600080fd5b506100b3600480360381019080803590602001909291905050506105cc565b6040518080602001806020018060200180602001858103855289818151815260200191508051906020019080838360005b838110156100ff5780820151818401526020810190506100e4565b50505050905090810190601f16801561012c5780820380516001836020036101000a031916815260200191505b50858103845288818151815260200191508051906020019080838360005b8381101561016557808201518184015260208101905061014a565b50505050905090810190601f1680156101925780820380516001836020036101000a031916815260200191505b50858103835287818151815260200191508051906020019080838360005b838110156101cb5780820151818401526020810190506101b0565b50505050905090810190601f1680156101f85780820380516001836020036101000a031916815260200191505b50858103825286818151815260200191508051906020019080838360005b83811015610231578082015181840152602081019050610216565b50505050905090810190601f16801561025e5780820380516001836020036101000a031916815260200191505b509850505050505050505060405180910390f35b34801561027e57600080fd5b506102e360048036038101908080359060200190929190803590602001908201803590602001908080601f01602080910402602001604051908101604052809392919081815260200183838082843782019150505050505091929192905050506108d5565b005b3480156102f157600080fd5b50610356600480360381019080803590602001908201803590602001908080601f016020809104026020016040519081016040528093929190818152602001838380828437820191505050505050919291929080359060200190929190505050610a5c565b005b34801561036457600080fd5b50610419600480360381019080803590602001908201803590602001908080601f0160208091040260200160405190810160405280939291908181526020018383808284378201915050505050509192919290803590602001908201803590602001908080601f01602080910402602001604051908101604052809392919081815260200183838082843782019150505050505091929192908035906020019092919080359060200190929190505050610bed565b005b34801561042757600080fd5b5061044660048036038101908080359060200190929190505050610d00565b6040518080602001838152602001828103825284818151815260200191508051906020019080838360005b8381101561048c578082015181840152602081019050610471565b50505050905090810190601f1680156104b95780820380516001836020036101000a031916815260200191505b50935050505060405180910390f35b3480156104d457600080fd5b506104dd610dd6565b604051808273ffffffffffffffffffffffffffffffffffffffff1673ffffffffffffffffffffffffffffffffffffffff16815260200191505060405180910390f35b34801561052b57600080fd5b5061054a60048036038101908080359060200190929190505050610dfb565b6040518080602001838152602001828103825284818151815260200191508051906020019080838360005b83811015610590578082015181840152602081019050610575565b50505050905090810190601f1680156105bd5780820380516001836020036101000a031916815260200191505b50935050505060405180910390f35b606080606080600560008681526020019081526020016000206003016005600087815260200190815260200160002060040160016000600560008a815260200190815260200160002060010154815260200190815260200160002060000160036000600560008b8152602001908152602001600020600201548152602001908152602001600020600101838054600181600116156101000203166002900480601f0160208091040260200160405190810160405280929190818152602001828054600181600116156101000203166002900480156106eb5780601f106106c0576101008083540402835291602001916106eb565b820191906000526020600020905b8154815290600101906020018083116106ce57829003601f168201915b50505050509350828054600181600116156101000203166002900480601f0160208091040260200160405190810160405280929190818152602001828054600181600116156101000203166002900480156107875780601f1061075c57610100808354040283529160200191610787565b820191906000526020600020905b81548152906001019060200180831161076a57829003601f168201915b50505050509250818054600181600116156101000203166002900480601f0160208091040260200160405190810160405280929190818152602001828054600181600116156101000203166002900480156108235780601f106107f857610100808354040283529160200191610823565b820191906000526020600020905b81548152906001019060200180831161080657829003601f168201915b50505050509150808054600181600116156101000203166002900480601f0160208091040260200160405190810160405280929190818152602001828054600181600116156101000203166002900480156108bf5780601f10610894576101008083540402835291602001916108bf565b820191906000526020600020905b8154815290600101906020018083116108a257829003601f168201915b5050505050905093509350935093509193509193565b6108dd610ed1565b6000809054906101000a900473ffffffffffffffffffffffffffffffffffffffff1673ffffffffffffffffffffffffffffffffffffffff163373ffffffffffffffffffffffffffffffffffffffff1614151561093857600080fd5b6004548160400181815250508281600001818152505081816020018190525080600360006004548152602001908152602001600020600082015181600001556020820151816001019080519060200190610993929190610ef3565b50604082015181600201559050506004600081548092919060010191905055507fb3b7629c7ca1a24c2fbe52e7dcb037ae5b1532c5541187f7c57235252bc0174383836040518083815260200180602001828103825283818151815260200191508051906020019080838360005b83811015610a1c578082015181840152602081019050610a01565b50505050905090810190601f168015610a495780820380516001836020036101000a031916815260200191505b50935050505060405180910390a1505050565b610a64610f73565b6000809054906101000a900473ffffffffffffffffffffffffffffffffffffffff1673ffffffffffffffffffffffffffffffffffffffff163373ffffffffffffffffffffffffffffffffffffffff16141515610abf57600080fd5b60025481604001818152505082816000018190525081816020018181525050806001600060025481526020019081526020016000206000820151816000019080519060200190610b10929190610ef3565b5060208201518160010155604082015181600201559050506002600081548092919060010191905055507f6404030ee551495d1f3dd519e1482342e76c61daa2c48788b6473c3dcd56b9f883836002546040518080602001848152602001838152602001828103825285818151815260200191508051906020019080838360005b83811015610bac578082015181840152602081019050610b91565b50505050905090810190601f168015610bd95780820380516001836020036101000a031916815260200191505b5094505050505060405180910390a1505050565b610bf5610f95565b6000809054906101000a900473ffffffffffffffffffffffffffffffffffffffff1673ffffffffffffffffffffffffffffffffffffffff163373ffffffffffffffffffffffffffffffffffffffff16141515610c5057600080fd5b8481606001819052508281602001818152505081816040018181525050838160800181905250806005600060065481526020019081526020016000206000820151816000015560208201518160010155604082015181600201556060820151816003019080519060200190610cc6929190610ef3565b506080820151816004019080519060200190610ce3929190610ef3565b509050506006600081548092919060010191905055505050505050565b60606000600360008481526020019081526020016000206001016003600085815260200190815260200160002060000154818054600181600116156101000203166002900480601f016020809104026020016040519081016040528092919081815260200182805460018160011615610100020316600290048015610dc65780601f10610d9b57610100808354040283529160200191610dc6565b820191906000526020600020905b815481529060010190602001808311610da957829003601f168201915b5050505050915091509150915091565b6000809054906101000a900473ffffffffffffffffffffffffffffffffffffffff1681565b60606000600160008481526020019081526020016000206000016001600085815260200190815260200160002060010154818054600181600116156101000203166002900480601f016020809104026020016040519081016040528092919081815260200182805460018160011615610100020316600290048015610ec15780601f10610e9657610100808354040283529160200191610ec1565b820191906000526020600020905b815481529060010190602001808311610ea457829003601f168201915b5050505050915091509150915091565b6060604051908101604052806000815260200160608152602001600081525090565b828054600181600116156101000203166002900490600052602060002090601f016020900481019282601f10610f3457805160ff1916838001178555610f62565b82800160010185558215610f62579182015b82811115610f61578251825591602001919060010190610f46565b5b509050610f6f9190610fc5565b5090565b6060604051908101604052806060815260200160008152602001600081525090565b60a06040519081016040528060008152602001600081526020016000815260200160608152602001606081525090565b610fe791905b80821115610fe3576000816000905550600101610fcb565b5090565b905600a165627a7a72305820ae24b9fc2d439fcc1c7fddea0cd3d7d1575d299954e1f1882df9e9ee4db1aa2d0029",
  "source": "pragma solidity ^0.4.24;\n\nimport \"./zeppelin/ownership/Ownable.sol\";\nimport \"./Student.sol\";\nimport \"./University.sol\";\n\ncontract Document is Ownable, University, Student {\n    \n    mapping(uint => DocumentData) _document;\n    uint _documentId = 1;\n    \n    struct DocumentData {\n        uint documentId;\n        uint universityId;\n        uint studentId;\n        string documentType;\n        string hash;\n    }\n    \n    function addDocument(string documentType, string hash, uint university, uint student) public onlyOwner {\n        DocumentData memory document;\n        \n        document.documentType = documentType;\n        document.universityId = university;\n        document.studentId = student;\n        document.hash = hash;\n        \n        _document[_documentId] = document;\n        _documentId++;\n    }\n    \n    function getDocument(uint documentId) public view returns(string, string, string, string) {\n        return (\n            _document[documentId].documentType,\n            _document[documentId].hash,\n            _university[_document[documentId].universityId].name,\n            _student[_document[documentId].studentId].name\n        );\n    }\n}",
  "sourcePath": "/Users/bonitour/Projetos/Blockchain/tcc2018/truffle/contracts/Document.sol",
  "compiler": {
    "name": "solc",
    "version": "0.4.24+commit.e67f0147.Emscripten.clang"
  },
  "schemaVersion": "2.0.1",
  "updatedAt": "2018-11-01T16:40:45.100Z"
}