{
  "contractName": "Student",
  "abi": [
    {
      "constant": true,
      "inputs": [],
      "name": "owner",
      "outputs": [
        {
          "name": "",
          "type": "address"
        }
      ],
      "payable": false,
      "stateMutability": "view",
      "type": "function"
    },
    {
      "anonymous": false,
      "inputs": [
        {
          "indexed": false,
          "name": "registrationId",
          "type": "uint256"
        },
        {
          "indexed": false,
          "name": "name",
          "type": "string"
        }
      ],
      "name": "AddNewStudent",
      "type": "event"
    },
    {
      "anonymous": false,
      "inputs": [
        {
          "indexed": true,
          "name": "previousOwner",
          "type": "address"
        },
        {
          "indexed": true,
          "name": "newOwner",
          "type": "address"
        }
      ],
      "name": "OwnershipTransferred",
      "type": "event"
    },
    {
      "constant": false,
      "inputs": [
        {
          "name": "registrationId",
          "type": "uint256"
        },
        {
          "name": "name",
          "type": "string"
        }
      ],
      "name": "addStudent",
      "outputs": [],
      "payable": false,
      "stateMutability": "nonpayable",
      "type": "function"
    },
    {
      "constant": true,
      "inputs": [
        {
          "name": "studentId",
          "type": "uint256"
        }
      ],
      "name": "getStudent",
      "outputs": [
        {
          "name": "",
          "type": "string"
        },
        {
          "name": "",
          "type": "uint256"
        }
      ],
      "payable": false,
      "stateMutability": "view",
      "type": "function"
    }
  ],
  "bytecode": "0x60806040526001600255336000806101000a81548173ffffffffffffffffffffffffffffffffffffffff021916908373ffffffffffffffffffffffffffffffffffffffff160217905550610548806100586000396000f300608060405260043610610057576000357c0100000000000000000000000000000000000000000000000000000000900463ffffffff16806342ecc52a1461005c578063642f9163146100cf5780638da5cb5b1461017c575b600080fd5b34801561006857600080fd5b506100cd60048036038101908080359060200190929190803590602001908201803590602001908080601f01602080910402602001604051908101604052809392919081815260200183838082843782019150505050505091929192905050506101d3565b005b3480156100db57600080fd5b506100fa6004803603810190808035906020019092919050505061035a565b6040518080602001838152602001828103825284818151815260200191508051906020019080838360005b83811015610140578082015181840152602081019050610125565b50505050905090810190601f16801561016d5780820380516001836020036101000a031916815260200191505b50935050505060405180910390f35b34801561018857600080fd5b50610191610430565b604051808273ffffffffffffffffffffffffffffffffffffffff1673ffffffffffffffffffffffffffffffffffffffff16815260200191505060405180910390f35b6101db610455565b6000809054906101000a900473ffffffffffffffffffffffffffffffffffffffff1673ffffffffffffffffffffffffffffffffffffffff163373ffffffffffffffffffffffffffffffffffffffff1614151561023657600080fd5b6002548160400181815250508281600001818152505081816020018190525080600160006002548152602001908152602001600020600082015181600001556020820151816001019080519060200190610291929190610477565b50604082015181600201559050506002600081548092919060010191905055507fb3b7629c7ca1a24c2fbe52e7dcb037ae5b1532c5541187f7c57235252bc0174383836040518083815260200180602001828103825283818151815260200191508051906020019080838360005b8381101561031a5780820151818401526020810190506102ff565b50505050905090810190601f1680156103475780820380516001836020036101000a031916815260200191505b50935050505060405180910390a1505050565b60606000600160008481526020019081526020016000206001016001600085815260200190815260200160002060000154818054600181600116156101000203166002900480601f0160208091040260200160405190810160405280929190818152602001828054600181600116156101000203166002900480156104205780601f106103f557610100808354040283529160200191610420565b820191906000526020600020905b81548152906001019060200180831161040357829003601f168201915b5050505050915091509150915091565b6000809054906101000a900473ffffffffffffffffffffffffffffffffffffffff1681565b6060604051908101604052806000815260200160608152602001600081525090565b828054600181600116156101000203166002900490600052602060002090601f016020900481019282601f106104b857805160ff19168380011785556104e6565b828001600101855582156104e6579182015b828111156104e55782518255916020019190600101906104ca565b5b5090506104f391906104f7565b5090565b61051991905b808211156105155760008160009055506001016104fd565b5090565b905600a165627a7a72305820ae175b7f8dc8f3464a8123c4e6c8549ed490570ced0855df88eecc942b56cb470029",
  "source": "pragma solidity ^0.4.24;\n\nimport \"./zeppelin/ownership/Ownable.sol\";\n\ncontract Student is Ownable {\n    \n    mapping(uint => StudentData) _student;\n    uint _studentId = 1;\n    \n    event AddNewStudent(uint registrationId, string name);\n\n    struct StudentData {\n        uint registrationId;  \n        string name;   \n        uint studentId;\n    }\n    \n    function addStudent(uint registrationId, string name) public onlyOwner{\n        StudentData memory student;\n\n        student.studentId = _studentId;\n        student.registrationId = registrationId;\n        student.name = name;\n        \n        _student[_studentId] = student;\n        _studentId++;\n\n        emit AddNewStudent(registrationId, name);\n    }\n    \n    function getStudent(uint studentId) public view returns(string, uint) {\n        return(_student[studentId].name, _student[studentId].registrationId);\n    }\n}",
  "sourcePath": "/Users/hgleite/Documents/temp/tcc2018/truffle/contracts/Student.sol",
  "compiler": {
    "name": "solc",
    "version": "0.4.24+commit.e67f0147.Emscripten.clang"
  },
  "schemaVersion": "2.0.0",
  "updatedAt": "2018-11-07T03:09:30.657Z"
}